:020000040800F2
:10000000200F0020C10100088B3E00084D3700087A
:10001000893E0008790900085DAD00080000000075
:1000200000000000000000000000000093430008F2
:10003000090A00080000000019420008C143000836
:10004000DB010008DB010008DB010008DB01000820
:10005000DB010008DB010008DB010008DB01000810
:10006000DB010008DB010008DB010008DB01000800
:10007000DB010008DB010008DB010008DB010008F0
:10008000DB010008DB01000849080008DB0100086B
:100090007D09000889090008DB010008DB01000870
:1000A000DB010008DB010008DB010008DB010008C0
:1000B000D1450008DD450008E9450008DB010008DE
:1000C000DB010008DB010008DB010008C142000879
:1000D000DB010008DB01000839AD000845AD000870
:1000E000DB010008DB010008DB010008DB01000880
:1000F000DB010008DB010008F5450008DB01000812
:10010000DB010008DB010008DB010008DB0100085F
:10011000DB010008DB010008DB010008DB0100084F
:10012000DB010008DB010008DB010008DB0100083F
:10013000DB010008DB010008DB010008DB0100082F
:1001400095090008A1090008DB010008DB0100088F
:10015000DB010008DB010008DB01000851AD0008ED
:10016000DB010008DB010008DB010008DB010008FF
:10017000DB010008DB010008DB01000800000000D3
:10018000DB010008DB010008F5A8000801A9000850
:10019000DB010008DB010008DB010008DB010008CF
:1001A0000000000000000000DB010008DFF80CD0B8
:1001B00000F038FB00480047A9B40008200F0020D9
:1001C0000648804706480047FEE7FEE7FEE7FEE7F1
:1001D000FEE7FEE7FEE7FEE7FEE7FEE7494400082C
:1001E000AD0100082DE9F05F0546002092469B46D0
:1001F00088460646814640241BE02846414647463D
:10020000224600F058FA53465A46C01A914110D37C
:1002100011461846224600F03FFA2D1A67EB0108F6
:100220004F4622460120002100F036FA17EB000964
:100230004E41201EA4F10104DFDC484631462A4627
:100240004346BDE8F09F40EA01039B0703D009E065
:1002500008C9121F08C0042AFAD203E011F8013BB2
:1002600000F8013B521EF9D27047D2B201E000F80B
:10027000012B491EFBD270470022F6E710B513464A
:100280000A4604461946FFF7F0FF204610BD034614
:1002900011F8012B00F8012B002AF9D118467047FC
:1002A0002DE9FE4F804681EA0300C00F0C46009006
:1002B00021F0004123F00045B8EB0200A94105D22E
:1002C0004046214690461C460B46024623F000401D
:1002D000104347D0270DC7F30A00C3F30A51029019
:1002E000401A019040286BDAC3F3130040F4801BDE
:1002F0000098924620B10023D2EB030A63EB0B0B6C
:1003000001985946C0F14002504600F0C5F9064632
:100310000D4650465946019A00F0DDF910EB0800F1
:100320006141002487EA115284EAE7731A4340D0FE
:10033000009A62B3019A012A4FEA075215DC001BAA
:1003400061EB02014FF0004202EA0752CDE90042A0
:10035000001C41F5801132462B4600F014FA03B020
:10036000BDE8F08F40462146F9E7001B61EB020132
:10037000001C41F5801300185B412018A2F50017FE
:1003800047EB030140EAD570B6196D4111E06D08E5
:100390004FEA360645EAC0754FEA0752001B61EB8B
:1003A0000201001C41F5801149084FEA3000001994
:1003B000514132462B4603B0BDE8F04F00F0D4B9AE
:1003C0000098012240000023D0EB020263EBE073AF
:1003D000009821464FEAE074B8EB000061EB04019D
:1003E000E9E783F000435BE781F0004158E72DE93E
:1003F000FE4F81EA030404F0004421F00041009420
:100400004FF0000B23F0004350EA01045ED052EAA3
:1004100003045BD0C3F30A54C1F30A552C44A4F27D
:10042000F3340194A0FB0254C1F3130141F4801191
:10043000C3F3130343F4801301FB024400FB034E98
:10044000840A970A44EA815447EA8357A4FB076861
:1004500002958D0A05FB07854FEA932C04FB0C548B
:100460002705029D4FEA065847EA1637B5EB0805FF
:100470006EEB070C870E920E47EA811742EA831251
:10048000A7FB0201B6EB0B0164EB00042B0D43EA62
:100490000C335E1844EB1C50DA465146E7FB020170
:1004A000C5F313044FEA0B3343EA14534FEA043203
:1004B000019C43EA0603A4F10C040294009CCDE9DC
:1004C00000B400F060F903B0BDE8F08F00200146F1
:1004D000F9E72DE9F04D81EA030404F0004B21F027
:1004E000004514464FF0000A23F0004150EA05028F
:1004F00020D054EA01021DD0C5F30A570246C5F3C5
:100500001303C1F31300C1F30A5640F4801543F4FA
:100510008013A7EB0608101BD64608F2FD3873EBD4
:10052000050002D308F1010801E092185B41B8F11F
:10053000000F03DA00200146BDE8F08D00204FF4E3
:100540008011064684460EE0171B73EB050705D3A2
:10055000121B63EB050306434CEA010C49084FEA02
:10056000300092185B4150EA0107EDD152EA0300D6
:1005700012D082EA040083EA0501084305D0101B6B
:10058000AB4106D20122002306E000224FF00043D7
:1005900002E06FF0010253101AEB06004CEB085119
:1005A00010EB0A0041EB0B01BDE8F04D00F0DCB8A8
:1005B0000EB540F2334102910021CDE900110A4607
:1005C0000B4600F0E0F803B000BD70B5C1F30A526D
:1005D00001F000450024C1F3130140F2FF3341F460
:1005E00080119A4201DA002070BD40F233439A42F2
:1005F000A2F2334203DC524200F05DF800E090408A
:100600002C43F1D0404270BD00F0004230F0004079
:100610000AD0C10D01F56071C0F3160042EA015124
:10062000C208400711437047002001467047000090
:1006300030B5041E71F1000404DB4FF00044404269
:1006400064EB0101141E73F1000405DB1C464FF03E
:100650000043524263EB04038B4208BF824230BD29
:1006600001F0004330B421F0004150EA010206D00D
:100670000A0DA2F56072C1F31301002A02DC30BC3E
:1006800000207047440F44EAC104C100E01830BCA8
:1006900000EBC25000F031B8202A04DB203A00FA07
:1006A00002F1002070479140C2F1200320FA03F3C9
:1006B000194390407047202A04DB203A21FA02F0C7
:1006C0000021704721FA02F3D040C2F1200291408C
:1006D000084319467047202A06DBCB17203A41FA17
:1006E00002F043EAE07306E041FA02F3D040C2F1BF
:1006F000200291400843194670470029A8BF70475F
:10070000401C490008BF20F00100704710B4B0FA47
:1007100080FC00FA0CF050EA010404BF10BC7047E2
:1007200049B1CCF1200421FA04F411FA0CF118BFFC
:10073000012121430843A3EB0C01CB1D4FEA0061CB
:100740004FEA102042BF002010BC704700EBC3509E
:1007500010440029A4BF10BC7047401C490008BFCA
:1007600020F0010010BC704710B5141E73F1000496
:1007700008DA401C41F1000192185B411A4301D193
:1007800020F0010010BD2DE9F04D92469B4611B1BD
:10079000B1FA81F202E0B0FA80F220329046FFF71F
:1007A0007BFF04460F4640EA0A0041EA0B0153462C
:1007B0005A46084313D0114653EA010019D0C8F134
:1007C00040025046FFF777FF05460E465046594611
:1007D0004246FFF761FF084305D0012004E02046B0
:1007E0003946BDE8F08D0020054346EAE0762C430B
:1007F00037430A986305E40AA0EB08000022FD0ACB
:1008000044EA47540A3002D500200146E9E70105D1
:1008100010196941DDE9084500196941BDE8F04D4D
:10082000A2E70000064C074D06E0E06840F0010337
:1008300094E8070098471034AC42F6D3FFF7BAFCAF
:1008400030C3000850C30008014800F035BD000067
:100850003C040020454910B54A6822F440324A6001
:100860004A6843681A434A6001684A6822F4807201
:100870004A6001684A68036942EA03224A600168E3
:100880004A6822F040724A6001684A6883681A43E5
:100890004A6001688A6822F400628A6001688A6896
:1008A000C3681A438A60816A6FF07062D14201683E
:1008B0008A6822F070628A6001688A680CD0836A54
:1008C0001A438A6001688A6822F040528A6001688F
:1008D0008A68C36A1A4301E022F040528A600168C4
:1008E0008A6822F002028A6001688A68836942EAA3
:1008F00043028A60016A002901684A680FD042F405
:1009000000624A6001684A6822F460424A600168F5
:100910004A68174C436A04EB43331A4301E022F45C
:1009200000624A600168CA6A22F47002CA62016801
:10093000CA6A838B0F4C04EB03531A43CA620168E3
:100940008A6822F400728A6001688A68036B42EA4E
:1009500043228A6001688A6822F480628A600168A2
:100960008A68406942EA8020886010BD0023014007
:1009700000E0FFFF0000F0FFFEE70000014800F08C
:1009800019BF000048010020014800F013BF00001B
:1009900048010020014800F00DBF00007001002058
:1009A000014800F007BF00007001002030B5044688
:1009B0004FF6FF7000214AF20103625C50400022B2
:1009C000C5074FEA500000D05840521C082AF7DBF8
:1009D000491C0629F1DB30BD01290AD002290BD0C0
:1009E00003290CD0042903D106490A884A800880CB
:1009F000704704494239F8E702492C39F5E70149C3
:100A00001639F2E75E060020704710B54FF46174A6
:100A100022460321012000F029F8224640F2091164
:100A2000022000F023F8224640F20F21032000F0BC
:100A30001DF8224640F2B711042000F017F82246B4
:100A400040F21E21052000F011F822464FF43E71BD
:100A5000062000F00BF82246B421072000F006F82B
:100A6000BDE8104040F2DC5001F076B930B4114BD3
:100A7000552500241D705D7098700720D8700120E6
:100A800018715971080A9871DA71100A18722046A3
:100A90001918401C8978C0B221448CB20728F7D3BA
:100AA000E043587230BC4FF6FF730A2201490248F6
:100AB00002F0EEBD920000203C03002070470000D1
:100AC00070B5FC4E2DED108B88B03078C0079FEDCF
:100AD000FACB9FEDFBBBDFEDFCEA9FEDFCABFD4DE0
:100AE0009FEDFD8B9FEDFEDB06F1580407D170787A
:100AF000000604D4A4F12C000078C00709D0C4ED8E
:100B000002EAC4ED00EAEB4816300178C90779D053
:100B1000EFE230690090B08AADF804001622E54992
:100B200002A8FFF790FB0DF1080C9CE80F0000F005
:100B3000F3FA10EE100AFFF767FD53EC1C2BFFF7DA
:100B400053FC41EC190B6868FFF75EFD53EC192B61
:100B5000FFF74DFCFFF784FD09EE100AF06B0090E3
:100B6000B6F84000D349ADF8040016222C3102A893
:100B7000FFF769FB0DF1080C9CE80F0000F0CCFAC0
:100B800010EE100AFFF740FD53EC1C2BFFF729FC79
:100B900041EC1F0B6868FFF737FD53EC1F2BFFF785
:100BA00026FCFFF75DFD09EE900AB5EEC09AF1EE66
:100BB00010FA04DBF5EEC09AF1EE10FA09D9B5EEA1
:100BC000C09AF1EE10FA5ED8F5EEC09AF1EE10FA86
:100BD00059DB39EE290AA878B5EEC00AF1EE10FA11
:100BE00011D000EE100A79EE690AB8EE400A29EE3B
:100BF000000AC0EE209A00EE100AB8EE400A30EE6D
:100C000069EA07E0F1E0400800EE100AF8EE409AC9
:100C1000B0EE69EA89EE29FA1FEE100AFFF7F4FC3C
:100C200041EC100B0AF0B4F853EC182B51EC100BFC
:100C3000FFF7DDFB53EC1A2BFFF74BFC53EC1B2BA0
:100C4000FFF7F6FC1CD21FEE100AFFF7DDFC41ECAB
:100C5000100B0AF09DF8B0EE481AF0EE681A53EC4B
:100C6000112B51EC100BFFF7C2FBB0EE4A1AF0EE5D
:100C70006A1A53EC112BFFF72CFCFFF7F1FCA06074
:100C800039EECE0AA0E0F0EEC90AB0EEE90AF4EEC1
:100C9000C00AF1EE10FA4DDDA87879EE690A00EE8F
:100CA000100AB8EE400A29EE800A80EE209A89EEFA
:100CB00089EA1EEE100AFFF7A7FC41EC100B0AF0C0
:100CC00067F853EC182B51EC100BFFF790FB53EC2B
:100CD0001A2BFFF7FEFB53EC1B2BFFF7A9FC1CD2D2
:100CE0001EEE100AFFF790FC41EC100B0AF050F8D2
:100CF000B0EE481AF0EE681A53EC112B51EC100BC1
:100D0000FFF775FBB0EE4A1AF0EE6A1A53EC112B9E
:100D1000FFF7DFFBFFF7A4FCA060A878400800EE17
:100D2000100AB8EE400A30EE090A20EE290AC0EE99
:100D3000090A4DE04FD2A87879EEC90A00EE100AF0
:100D4000B8EE400A29EE000AC0EE209A89EE29EAA0
:100D50001EEE100AFFF758FC41EC100B0AF018F8D1
:100D600053EC182B51EC100BFFF741FB53EC1D2BF0
:100D7000FFF7AFFB53EC1B2BFFF75AFC1CD21EEE08
:100D8000100AFFF741FC41EC100B0AF001F8B0EE3D
:100D9000481AF0EE681A53EC112B51EC100BFFF7C8
:100DA00026FBB0EE4D1AF0EE6D1A53EC112BFFF747
:100DB00090FBFFF755FCA060A878400800EE100AF1
:100DC000B8EE400A30EE290A20EE090AC0EE290AE0
:100DD000C4ED000A97E6F4EE400AF1EE10FAF9D1FC
:100DE000C4ED02EA84ED009A8DE6407800067BD4DB
:100DF000304842300178C90776D140780006F6D4F1
:100E0000D6F852000090B6F856002A49ADF8040012
:100E10001622423102A82636FFF715FA0DF1080C0A
:100E20009CE80F0000F078F910EE100AFFF7ECFBD9
:100E300053EC1C2BFFF7D8FA41EC190B6868FFF74D
:100E4000E3FB53EC192BFFF7D2FAFFF709FC09EE8D
:100E5000100A30680090B0881649ADF804001622D8
:100E6000163102A8FFF7EFF90DF1080C9CE80F000E
:100E700000F052F910EE100AFFF7C6FB53EC1C2BE2
:100E8000FFF7AFFA41EC1C0B6868FFF7BDFB53ECB2
:100E90001C2BFFF7ACFAFFF7E3FB09EE900AB5EE67
:100EA000C09AF1EE10FA04DBF5EEC09AF1EE10FAFA
:100EB00025D91AE01C060020000000000000214097
:100EC0000000000000003E4000000000A7E8482E9F
:100ED000FF210940C400002000000000008066409F
:100EE000A7E8482EFF2109C003E1B5EEC09AF1EE54
:100EF00010FA59D8F5EEC09AF1EE10FA54DB39EE3B
:100F0000290A6878B5EEC00AF1EE10FA10D000EEAA
:100F1000100A79EE690AB8EE400A29EE000AC0EE1E
:100F2000209A00EE100AB8EE400A70EE69CA06E098
:100F3000400800EE100AF8EE409AF0EE69CA89EE19
:100F400029CA1CEE100AFFF75FFB41EC100B09F0F9
:100F50001FFF53EC182B51EC100BFFF748FA53EC22
:100F60001A2BFFF7B6FA53EC1B2BFFF761FB14D2D9
:100F70001CEE100AFFF748FB41EC100B09F008FFCC
:100F800053EC182B51EC100BFFF731FA53EC1A2BE2
:100F9000FFF79FFAFFF764FBE06039EEEC0A20EE02
:100FA000090AC0EE290A4DE0F0EEC90AB0EEE90ADE
:100FB000F4EEC00AF1EE10FA4ADD687879EE690ABB
:100FC00000EE100AB8EE400A29EE800A80EE20CA30
:100FD00089EE8C9A19EE100AFFF716FB41EC100B04
:100FE00009F0D6FE53EC182B51EC100BFFF7FFF96C
:100FF00053EC1A2BFFF76DFA53EC1B2BFFF718FB82
:1010000014D219EE100AFFF7FFFA41EC100B09F0A9
:10101000BFFE53EC182B51EC100BFFF7E8F953EC23
:101020001A2BFFF756FAFFF71BFBE06068784008C1
:1010300000EE100AB8EE400A30EE0C0A20EE290A43
:10104000C0EE0C0AC4ED010A08B0BDEC108B70BDF7
:1010500045D2687879EEC90A00EE100AB8EE400A67
:1010600029EE000A80EE20AAC9EE0A9A19EE900A2B
:10107000FFF7CAFA41EC100B09F08AFE53EC182B6B
:1010800051EC100BFFF7B3F953EC1D2BFFF721FACE
:1010900053EC1B2BFFF7CCFA14D219EE900AFFF792
:1010A000B3FA41EC100B09F073FE53EC182B51EC22
:1010B000100BFFF79CF953EC1D2BFFF70AFAFFF713
:1010C000CFFAE0606878400800EE100AB8EE400AF7
:1010D00030EE0A0A20EE090AC0EE0A0AB2E7F4EE80
:1010E000400AF1EE10FAAFD1C4ED03EA84ED019AA3
:1010F000AAE7C4ED03EAC4ED01EAA5E70146002032
:1011000089B20122CB0701D0401CC0B2521C490851
:10111000D2B2102AF6D97047002110B583B20A4620
:101120000120DC0703D0491C0244C9B2D2B2401CE2
:101130005B08C0B21028F4D951B100EE102AF8EEC5
:10114000400A00EE101AB8EE401A80EE810A10BD77
:101150009FED010A10BD0000000000007047000074
:1011600078B50024009490F83C20012A19D001227F
:1011700080F83C200A6807230568092A13D9EE681D
:101180000A3A02EB420293409E43EE600A788B6873
:101190000A3A02EB420293400268D5682B43D360BF
:1011A00010E0022078BD2E6902EB420293409E437C
:1011B0002E610A788B6802EB42029340026815693F
:1011C0002B4313614A681F23072A13D205686E6BED
:1011D000521E02EB820293409E436E630B790A8893
:1011E0005B1E92B203EB83039A4003685D6B2A4354
:1011F0005A6327E005680D2A12D22E6BD21F02EB2C
:10120000820293409E432E630B790A88DB1F92B2C1
:1012100003EB83039A4003681D6B2A431A6311E0B2
:10122000EE6A0D3A02EB820293409E43EE620B7926
:101230000A880D3B92B203EB83039A400368DD6A90
:101240002A43DA62174B0568154A9D4206D10D689C
:10125000122D03D1556845F48005556005689D42FF
:1012600019D1114D0B68AB4201D0112B13D153682A
:1012700043F4000353600968A9420CD10B490C4A9E
:101280000968B1FBF2F101EB8101490000E0491E60
:1012900000910029FBD180F83C40002078BD00007F
:1012A0000023014000200140120000102000002017
:1012B00040420F007047704770B5044600680168EF
:1012C0004268C1F34001C2F3401251B34AB3216CEA
:1012D000C90603D4216C41F400712164816811F0C6
:1012E000405F17D1A169A9B9C16A11F4700F02D08A
:1012F000816849050ED4416821F020014160206CCD
:1013000020F480702064206CC00403D4206C40F072
:10131000010020642046FFF7CDFF21686FF0120026
:101320000860206801684268C1F38001C2F3C012FE
:1013300089B382B3216CC90603D4216C41F40051F6
:101340002164816811F4401F1ED1816B11F4401F8C
:1013500002D08168490517D44168490514D48168D1
:1013600011F0405F10D1A16971B9416821F080018D
:101370004160206C20F480502064206CC00503D4B0
:10138000206C40F0010020642046FFF7E7FE216852
:101390006FF00C00086020680168426811F0010FCE
:1013A000C2F380120ED06AB10068C0070AD0206C68
:1013B00040F480302064204600F046F821686FF049
:1013C00001000860206801684268C1F34011C2F35F
:1013D000806200290DD0002A0BD0616C41F002011F
:1013E00061646FF0200505602046FFF764FF206808
:1013F000056070BD70B504004FF0000503D0206C8F
:10140000002610B107E0012070BD666484F83C60DE
:10141000204600F01BF8206CC00610D4206C20F48D
:10142000885040F0020020642046FFF713FA6664FB
:10143000206C20F0020040F00100206400E0012553
:1014400084F83C60284670BD7047000010B586B037
:10145000044614216846FEF70FFF154920688842AC
:1014600024D114480021026842F4807202600068AE
:1014700000F4807005900F481438026842F00102B1
:101480000260006800F001000590402000900320F9
:10149000CDE901016946084800F070FC00221146C0
:1014A000122000F0C3FD122000F0B4FD06B010BD04
:1014B00000200140443802400000024090F8202003
:1014C000012A09D090F82020022A05D0416A41F46F
:1014D0008021416201207047006842690A434261ED
:1014E00000207047F0B590F82040012C07D090F80C
:1014F0002040022C03D0416A41F4802153E004686B
:10150000A5686D0105D4A5682D0102D4A568ED007C
:1015100046D5A4680125C4F30164A5401D608D680B
:101520004FF4C0739DB1CE6835434E6845EAC60599
:10153000066803EB0417F5514FF4C275076805EB15
:1015400004150E697E51097D012905D009E00E8838
:10155000CD6845EA4655EBE701684E5946F480767A
:101560004E511179D2F805504FF4C67641EA052163
:10157000056806EB0416A9511178D2F801204FF442
:10158000C47541EA0221026805EB04155151006857
:1015900003EB0411425842F0010242500020F0BD1A
:1015A000416A41F4001141620120F0BD10B590F88C
:1015B0002020012A09D090F82020022A05D0416A73
:1015C00041F480214162012010BD3A48D0F8002248
:1015D00042F00102C0F80022D0F8002222F47C522E
:1015E000C0F80022D0F800224B6A42EA0322C0F879
:1015F00000220B7D01229A40D0F81C329343C0F8A0
:101600001C32CB69B3B9D0F80C329343C0F80C321A
:101610008C894B6864F31F434C6900EBC404C4F825
:1016200040320C890B6864F31F434C6900EBC4041F
:10163000C4F84432CB69012B16D1D0F80C321343D5
:10164000C0F80C320C884B6864F31F434C6900EB04
:10165000C404C4F840320C89CB6864F31F434C695E
:1016600000EBC404C4F844328B69002BD0F8043278
:101670000ED01343C0F804320B69002BD0F814329B
:1016800008D01343C0F81432096A012904D008E0D5
:101690009343EFE79343F5E7D0F81C121143C0F8EA
:1016A0001C12D0F8001221F00101C0F80012002035
:1016B00010BD000000640040704730B590F8204035
:1016C000012C07D090F82040022C03D0416A41F44D
:1016D000802109E011B1012909D00CE00468E46817
:1016E00007E0416A41F400114162012030BD046805
:1016F0002469A407F5D04FF4D874056804EB0114ED
:101700002D5915F00405956005682D5942D0ED0856
:10171000556005682C59C4F34004D4604FF4DA7462
:10172000056804EB01142D5905F00F0515610568D6
:101730002D59C5F30725956105682C59240C546172
:101740004FF4DC72046802EB0112A4581C700468A8
:10175000A458240A5C700468A458240C9C70046883
:10176000A258120EDA704FF4DE72046802EB011216
:10177000A4581C710468A458240A5C710468A45815
:10178000240C9C710468A258120EDA7129B1012947
:1017900009D00DE06D0D1560BBE70068C16841F030
:1017A0002001C16004E00068016941F0200101618D
:1017B000002030BD2DE9F05F054600680024466931
:1017C000D0F804908768D0F80CB0D0F810A0D0F80A
:1017D0001880F10748D0F90714D001218160B807BB
:1017E00003D5284600F09FFA0CE0780702D54FF4A5
:1017F000006407E0380702D54FF4805402E0284621
:1018000000F090FAF80516D529684FF480708860CA
:10181000B80503D5284600F088FA0CE0780502D513
:1018200044F4005407E0380502D544F4804402E053
:10183000284600F079FAF80316D529684FF480306D
:101840008860B80303D5284600F071FA0CE07803ED
:1018500002D544F4004407E0380302D544F4803450
:1018600002E0284600F062FA300707D55FEACB6055
:1018700004D52968102044F40074C86070074FF044
:10188000080707D55FEA0B7004D52868C7602846AB
:1018900000F0AAF9B00706D52868C068800702D012
:1018A000284600F0A3F9700607D55FEACA6004D5A0
:1018B0002968102044F480640861B00607D55FEA07
:1018C0000A7004D528680761284600F0FBF9F00685
:1018D00006D528680069800702D0284600F0F3F991
:1018E000B00308D55FEAC96005D5296810204860B3
:1018F000284600F0E9F9F00307D55FEA097004D53E
:1019000028684760284600F013FA300446D55FEA9D
:10191000497040D5F00504D55FEAC87001D044F0A5
:101920000104B00504D55FEA887001D544F00204D3
:10193000700504D55FEA487001D544F00404300511
:1019400029D518F0700F26D008F07000402815D067
:1019500006DC102809D020280AD0302816D10AE049
:1019600050280ED0602811D10EE044F008040DE09C
:1019700044F010040AE044F0200407E044F040047E
:1019800004E044F0800401E044F480742868816934
:1019900021F070018161296804204860002C05D085
:1019A000686A204368622846FFF786FEBDE8F09F1C
:1019B00070B5040003D094F8200010B104E00120B9
:1019C00070BD204600F082F82068016821F0020115
:1019D000016000F0BFFA0546052604E000F0BAFAFF
:1019E000401B0A2811D8206840688007F6D4206878
:1019F000016841F00101016000F0ACFA05460BE01E
:101A000000F0A8FA401B0A2806D9606A40F40030AA
:101A1000606284F82060D2E720684068C007EFD099
:101A2000207E0128206801683DD021F080010160FE
:101A3000607E01282068016838D021F040010160F3
:101A4000A07E01282068016833D021F020010160C8
:101A5000E07E0128206801682ED041F0100101606D
:101A6000207F01282068016829D021F00801016049
:101A7000607F01282068016824D021F00401016002
:101A8000D4E902010843D4E9041211430843616810
:101A9000491E08432168C86100206062012084F863
:101AA0002000002070BD41F08001C0E741F04001FE
:101AB000C5E741F02001CAE721F01001CFE741F06E
:101AC0000801D4E741F00401D9E70000F0B587B080
:101AD000044614216846FEF7CFFB3E4B3E48DFF834
:101AE000F0E01968D4F800C03B4A03250226092714
:101AF00010300024491CF4452AD11960012907D16E
:101B0000016841F000710160006800F0007005900C
:101B1000106840F0080010601068CDE9005600F031
:101B20000800CDE9047069462C48CDE9024500F073
:101B300025F900221146142000F078FA142000F054
:101B400069FA00221146152000F070FA15203BE0DA
:101B5000DFF88CE0F44539D1D0F800C04CF0806C4F
:101B6000C0F800C0D0F800C001290CF0806CCDF89E
:101B700014C0196007D1016841F00071016000686C
:101B800000F000700590106840F0020010601068CE
:101B900002AB00F0020005904FF44050CDE9000682
:101BA00083E8B00069460F4800F0E8F80022012100
:101BB000402000F03BFA402000F02CFA00220121E6
:101BC000412000F033FA412000F024FA07B0F0BDC4
:101BD000006400400000002030380240000C024049
:101BE0000068004000040240704700002DE9F04109
:101BF000044600682B492C4D884217D12B4B0021FD
:101C000003F10C022A48FFF758FD2849C868A0F5DF
:101C1000806001380AD108786A7842EA0020254AB3
:101C200090848878E97841EA0020D08422492068AD
:101C3000884235D11C4B002603F10C0231461F4867
:101C4000FFF73BFDE968A1F59850113806D1E87817
:101C50002A7942EA00201A4AA2F87C00B1F5817F75
:101C60001ED103F031F8002405EB440115F81400EF
:101C70004978304341EA0020671CF9B2FEF7ACFE18
:101C80000026032C09D108F063F903F01DF801F0D8
:101C90005EFD08F06FFD02F05BFEFCB2042CE3D3A6
:101CA000BDE8F08100640040E4010020BC01002098
:101CB00048010020B00500200068004070010020AD
:101CC00084060020704770477047000070B50446D6
:101CD00090F82000012804D0606A40F4002060627F
:101CE00018E0022084F820002068016821F001013A
:101CF000016000F02FF905460EE000BF00F02AF960
:101D0000401B0A2808D9606A40F400306062052050
:101D100084F82000012070BD20684068C007EDD124
:101D2000606270BD7047704770477047704770477A
:101D3000704790F83510022903D0802141650120B9
:101D40007047052180F835100068016821F0010115
:101D5000016000207047000070B5044600F0FAF8FA
:101D60000546601C02D004480078044400F0F2F8F4
:101D7000401BA042FAD370BD140000202DE9F84F9B
:101D8000DFF890B100224FF001084FF0030A4FF046
:101D90000F090BF1040E00BF0B6808FA02F4234090
:101DA000A3426ED14D68022D01D0122D0ED1D5085F
:101DB00000EB850CDCF820505607F70E09FA07F601
:101DC000B5430E69BE402E43CCF82060066855002E
:101DD0000F790AFA05FC07F0030726EA0C06AF4064
:101DE000374307604E68012E05D0022E03D0112E16
:101DF00001D0122E0ED18768CE6827EA0C07AE40BC
:101E00003E4386604668A6430C79C4F300149440B0
:101E100034434460C4688E6824EA0C04AE40264310
:101E2000C6604C68E4006FD53B4C256845F480459E
:101E30002560246822F0030504F480440094374CA4
:101E40002E19D6F8084895072F0F09FA07F5AC4365
:101E5000334DA84201D100252EE0324DA84201D1D8
:101E6000012529E0304DA84201D1022524E02F4D63
:101E7000A84201D103251FE02D4DA84202D104251F
:101E80001AE041E02B4DA84201D1052514E02A4D6E
:101E9000A84201D106250FE0284DA84201D107250F
:101EA0000AE0274DA84201D1082505E0254DA842AA
:101EB00001D1092500E00A25BD402543C6F8085890
:101EC000DBF800405D464E689C43F60300D51C439A
:101ED0002C60DEF8004075464E689C43B60300D582
:101EE0001C432C600B4D08352C684E689C43F60251
:101EF00000D51C432C60074D0C352C684E689C4364
:101F0000B60200D51C432C60521C102AFFF444AFCB
:101F1000BDE8F88F003C01404438024000300140E9
:101F2000000002400004024000080240000C024091
:101F3000001002400014024000180240001C024041
:101F400000200240002402400AB181617047090468
:101F5000FBE7000001488068704700001400002083
:101F600002488168027811448160704714000020A3
:101F70000B4810B5016841F400710160016841F43B
:101F800080610160016841F480710160032000F00C
:101F90006DF8002000F006F800F024F8002010BDD5
:101FA000003C024070B50D4D04464FF47A7128781C
:101FB000B1FBF0F00A490968B1FBF0F000F090FCC9
:101FC00048B9102C07D200222146501E00F02EF8EE
:101FD00000206C6070BD012070BD00001400002066
:101FE000200000200A4808B5016841F480410160E2
:101FF000006800F4804000900548001F016841F02F
:1020000080510160006800F08050009008BD000021
:102010004438024000F01F02012191404009800035
:1020200000F1E020C0F8001170470000F0B40E4B42
:102030001B680C46C3F30223C3F10705042D00D926
:102040000425191D072901D2002300E0DB1E01260B
:1020500006FA05F1491E214099409E40761E164021
:102060003143F0BC01F012BF0CED00E0064900F076
:10207000070208684FF6FF03184040EA0220034AAF
:1020800010430860704700000CED00E00000FA0506
:102090002DE9F0470E46050065D0DFF81481D8F829
:1020A0000000F7B200F00F00B04207D288F80070CD
:1020B000D8F8000000F00F00B04254D128683D4C21
:1020C000810712D5400703D5206840F4E050206016
:1020D0002878000703D5206840F46040206020681D
:1020E000A96820F0F000084320602878C0072DD0B0
:1020F000304968680839012812D0022813D0032813
:1021000011D00968890700292DDA216821F003011F
:1021100001432160FFF71EFF814641F2883A0EE03D
:1021200009688903EFE709688901ECE7FFF712FF07
:10213000A0EB0901514502D90320BDE8F0872068D2
:10214000696800F00C00B0EB810FEFD1D8F80010F7
:10215000404601F00F01B14207D90770006800F056
:102160000F00B04201D00120E7E72878400705D5ED
:102170002068E96820F4E0500843206028780007D0
:1021800006D52068296920F4604040EAC10020603B
:1021900000F036F82168084AC1F30311515CC840C9
:1021A000064908600020FFF7FDFE0020C5E700009B
:1021B000003C02400838024006BA00082000002017
:1021C0000448054900680968044AC1F38221515C4A
:1021D000C8407047200000200838024016BA0008A6
:1021E0000448054900680968044AC1F34231515C5A
:1021F000C8407047200000200838024016BA000886
:10220000154810B5006810F00C02144813D014499A
:10221000042A0FD0082A0ED10F4C241F22682368ED
:1022200002F03F025B0207D52068C0F38810A0FBD4
:10223000010106E0084610BD2168C1F38811A1FB29
:1022400000010023FDF7CEFF2168C1F30141491CC5
:102250004900B0FBF1F010BD083802400024F40042
:10226000001BB7002DE9F84F050076D02878DFF87D
:10227000F8B2BE4CC00749D0DBF800105846C1F395
:102280008101012908D00068C0F3810002280AD129
:10229000201D0068400206D52068800336D5686896
:1022A0000028E2D032E06868B0F5803F10D0B0F589
:1022B000A02F206810D020F480302060206820F407
:1022C000802020606868A0B1FFF744FE06460CE05D
:1022D000206840F48030F4E740F480202060F7E785
:1022E000FFF738FE801B642873D820688003F7D579
:1022F0000CE0FFF72FFE064605E000BFFFF72AFEC1
:10230000801B6428F0D820688003F7D42878DFF891
:10231000608280074FF000093ED5DBF80010584678
:1023200011F00C0F09D00068C0F3810002280BD116
:102330008D48001F0068400206D42068800715D52C
:10234000E868012809D111E0E868B8B10120C8F8AF
:102350000000FFF7FFFD064605E002E1FFF7FAFD8A
:10236000801B0228C0D820688007F7D5206829691B
:1023700020F0F80040EAC10020600DE0C8F80090AD
:10238000FFF7E8FD064604E0FFF7E4FD801B0228A6
:102390001FD820688007F7D42878000722D5724E0E
:1023A000744869696C3671B101210160FFF7D2FD93
:1023B000074604E0FFF7CEFDC01B022809D83068AD
:1023C0008007F7D50EE0C0F80090FFF7C3FD074681
:1023D00005E083E0FFF7BEFDC01B02287ED8306811
:1023E0008007F7D42878400768D5DFF87CA100275C
:1023F0000AF1380ADAF80000C0000BD4DAF800104D
:1024000041F08051CAF80010DAF80000012700F00E
:1024100080500090584E3068C00510D4306840F4A9
:1024200080703060FFF796FD009005E0FFF792FDA9
:102430000099401A022851D83068C005F6D54A4E96
:10244000A868683601280FD00528306810D020F021
:1024500001003060306820F004003060A868B8B136
:10246000FFF778FD00900FE0306840F00100F4E7DE
:1024700040F004003060F7E7FFF76CFD0099411A67
:1024800041F28830814264D830688007F4D50EE08C
:10249000FFF760FD009007E0FFF75CFD0099411A2F
:1024A00041F28830814254D830688007F4D42FB18B
:1024B000DAF8001021F08051CAF80010A869C0B302
:1024C000DBF80010C1F3810102294AD002284846F6
:1024D00007D0C8F86000FFF73DFD00E039E0054691
:1024E0003AE04746C8F86000FFF734FD064604E0CE
:1024F000FFF730FD801B02282BD820688001F7D41D
:10250000D5E907010843A96A1C4A490802EB0141C1
:102510006A6A41EA8211084395F82C1040EA016189
:102520001148001F016001203866FFF713FD0546C2
:1025300005E014E0FFF70EFD401B022809D82068D3
:102540008001F7D50BE000BFFFF704FD401B022818
:1025500002D90320BDE8F88F20688001F4D4002060
:10256000F8E70120F6E70000083802400038024092
:1025700000004742800E4742007000400000FFFF0D
:102580007047000038B504460068426881684B0611
:1025900005D4CB0703D0530601D5216C04E08B078B
:1025A00007D5130605D5616C01B02046BDE8304063
:1025B000084711F4B07F48D0930646D54B060AD59C
:1025C00094F85130032B3DD0636D43F004036365F1
:1025D000C368836800938B0609D5636D43F00103DC
:1025E000636583680093036823F040030360C805B4
:1025F00006D5606D40F00800606520688068009036
:10260000606D002821D02068416821F0E001416020
:10261000012084F85100900718D02068416821F00B
:10262000030141600B4DE06C18B10565E06CFFF7EC
:1026300080FBA06C002808D00565A06CBDE8384080
:10264000FFF777BBC1688068009038BD2046FFF770
:1026500097FF38BDED42000870B5040005D0002595
:10266000A56294F8510010B106E0012070BD84F815
:102670005050204600F030F8022084F851002068C5
:10268000016821F040010160D4E901010843D4E967
:1026900003121143084361690843218B01F400715F
:1026A0000843E1690843216A0843A16A0843216895
:1026B0000860A069042101EA1040616A08432168AA
:1026C00048602068C16921F40061C161656501202D
:1026D00084F85100002070BDF0B587B00446142185
:1026E0006846FDF7C9FD2049206888423AD11F4855
:1026F0000024016841F480510160006800F48050BA
:1027000005901A481438016841F00201016001681F
:1027100001F002010591016841F0010101600068CA
:10272000022500F0010005901820CDE9000502AA5D
:102730000326052782E8D00069460D48FFF71EFBF7
:102740008020CDE9000502AA694682E8D000094848
:10275000FFF714FB002211462320FFF767FC23201C
:10276000FFF758FC07B0F0BD00300140443802408C
:1027700000040240000002402DE9F84F044690F8A2
:1027800050000026994617460D4601280DD04FF0FF
:10279000010B84F850B0FFF7DDFB804694F8510040
:1027A000B246012804D0022694E00220BDE8F88F4A
:1027B000002D7BD0002F79D0032084F85100C4F87D
:1027C00054A02563A786E786C4F838A0A4F83CA0E7
:1027D000A4F83EA0C4F844A0C4F840A0A068B0F596
:1027E000004F04D12068016841F4804101602068F5
:1027F0000168490603D4016841F040010160E068C6
:10280000B0F5006F606804D030B3E08E012823D0AB
:102810003EE010B1E08E01281AD135F8021B206885
:1028200005E020688168890706D535F8021BC1607C
:10283000E08E401EE0860BE0B9F1000F34D0B9F114
:10284000FF3F05D0FFF786FBA0EB080149452BD2DF
:10285000E08E0028E5D11EE0216815F8010B087311
:1028600006E020688168890706D515F8011B017309
:10287000E08E401EE0860BE0B9F1000F14D0B9F1F4
:10288000FF3F05D0FFF766FBA0EB080149450BD2DF
:10289000E08E0028E5D14B46012202212046CDF8EA
:1028A000008001F02BFD10B1032613E011E0424639
:1028B0004946204601F00AFD18B101262020606536
:1028C00008E0A06818B92068C16880680090606D51
:1028D00000B1012684F851B084F850A0304665E775
:1028E00010B5401EB0F1807F01D3012010BD4FF024
:1028F000E02460610F21601701F0C8FA0020A06198
:1029000007202061002010BD7047704710B590F877
:102910003820012A25D0012280F83820CA688C6826
:1029200022F4407222434C6822F4806222430C68F5
:1029300022F4006222430C6922F4805222434C6943
:1029400022F4005222438C6922F48042224322F472
:102950000041026800232143516480F83830002090
:1029600010BD022010BD30B590F83820012A20D0CB
:10297000012280F83820022380F8393003685C682F
:1029800024F070045C6003685C680D682C435C6034
:1029900003689C6824F080049C6003689C68496814
:1029A0000C439C6080F83920002180F838100846DC
:1029B00030BD022030BD10B5040003D094F83900BA
:1029C00010B107E0012010BD002084F83800204637
:1029D00000F00CF8022084F83900211D206801F075
:1029E0000FFE012084F83900002010BD08B50168F1
:1029F0002748B1F1804F11D0264A91421DD101687C
:102A000041F0020101600068022200F00200009023
:102A100000211D20FFF70AFB1D2033E0016841F073
:102A2000010101600068012200F001000090002116
:102A30001C20FFF7FBFA1C2024E0174A91420ED11C
:102A4000016841F0040101600068032200F0040005
:102A5000009000211E20FFF7E9FA1E2012E00F4827
:102A6000814213D10A48001D016841F00201016052
:102A70000068002200F00200009011462E20FFF7AF
:102A8000D5FA2E20BDE80840FFF7C4BA08BD000003
:102A900040380240000400400008004000040140AB
:102AA0000168CA6842F00102CA600068016841F02A
:102AB000010101600020704770B5044690F83800AD
:102AC000012817D0012584F83850022084F83900F5
:102AD0002068826822F0770222F47F4282600868D0
:102AE000502837D00DDC202859D005DC88B31028B9
:102AF00041D151E0022070BD302853D040283AD156
:102B00003FE060282ED070280BD0B0F5805F03D056
:102B1000B0F5005F2FD110E02068816821F0070137
:102B200015E0CB68D1E90121206801F0D4FD2168CE
:102B3000886840F0770088601DE0CB68D1E901210A
:102B4000206801F0C8FD2068816841F480418160FF
:102B500011E01EE0CA684968206801F085FE502136
:102B6000206806E0CA684968206801F08EFE60218E
:102B7000206801F0BAFD84F83950002084F838004C
:102B800070BDCA684968206801F06EFE4021206867
:102B9000EFE700212068ECE710212068E9E7202119
:102BA0002068E6E730212068E3E7704770B5044607
:102BB000006801694FF00005C943890715D4C16851
:102BC000C943890711D4E91E0161012020762068DC
:102BD00080698007204602D0FFF7E7FF04E000F09D
:102BE000EEF8204600F0C2F9257620680169C94355
:102BF000490717D4C168C943490713D46FF00401CA
:102C00000161022020762068806910F4407F204610
:102C100002D0FFF7CAFF04E000F0D1F8204600F030
:102C2000A5F9257620680169C943090716D4C1684A
:102C3000C943090712D46FF008010161042020760E
:102C40002068C0698007204602D0FFF7AEFF04E08D
:102C500000F0B5F8204600F089F925762068016972
:102C6000C943C90617D4C168C943C90613D46FF054
:102C700010010161082020762068C06910F4407FAF
:102C8000204602D0FFF791FF04E000F098F82046BC
:102C900000F06CF9257620680169C943C90708D19D
:102CA000C168C943C90704D1891E0161204600F0EB
:102CB000C7F920680169C943090609D4C168C94335
:102CC000090605D46FF0800101612046FFF71CFE64
:102CD00020680169C943490609D4C168C943490646
:102CE00005D46FF040010161204600F069FA2068C8
:102CF0000169C94389060BD4C168C943890607D451
:102D00006FF0200101612046BDE87040FFF7FDBD76
:102D100070BD000010B586B0044614216846FDF76A
:102D2000ABFA0E492068884215D10D48002102688F
:102D300042F480720260006800F4807005906020A8
:102D400000900220CDE901010320CDE9031069467E
:102D50000448FFF713F806B010BD0000000401405E
:102D6000303802400020024070B5044690F8380028
:102D700001280DD0012584F83850022084F839004C
:102D800042B1042A0AD0082A0CD00C2A11D10DE035
:102D9000022070BD206801F0B1FC0AE0206801F05B
:102DA000D9FC06E0206801F007FD02E0206801F090
:102DB00033FD84F83950002084F8380070BD704726
:102DC00010B5040003D094F8390010B107E00120D9
:102DD00010BD002084F83800204600F00CF80220D6
:102DE00084F83900211D206801F00AFC012084F8D4
:102DF0003900002010BD704710B50268044631B19B
:102E0000042908D0082920D00C2908D121E0D06855
:102E100040F0020002E0D06840F00400D0600122DF
:102E2000206801F04DFC0D492068884202D00C4911
:102E3000884203D1416C41F400414164206801683B
:102E400041F001010160002010BDD06840F0080091
:102E5000E4E7D06840F01000E0E700000000014027
:102E60000004014070B5044690F838000D46012872
:102E70000DD0012684F83860022084F8390042B170
:102E8000042A18D0082A2AD00C2A4DD139E0022071
:102E900070BD206801F032FC2068816941F00801B2
:102EA00081612068816921F0040181612068816964
:102EB0002A69114311E0206801F04CFC2068816907
:102EC00041F4006181612068816921F48061816140
:102ED000206881692A6941EA0221816124E0206831
:102EE00001F06AFC2068C16941F00801C1612068F5
:102EF000C16921F00401C1612068C1692A691143D7
:102F000011E0206801F088FC2068C16941F400618B
:102F1000C1612068C16921F48061C1612068C16913
:102F20002A6941EA0221C16184F83960002084F8ED
:102F3000380070BD10B5040003D094F8390010B10A
:102F400007E0012010BD002084F83800204600F082
:102F50000CF8022084F83900211D206801F050FB94
:102F6000012084F83900002010BD704770B50D496C
:102F700000680968884214D10B4CA088401C80B2BC
:102F8000A080B0F57A7F0CD9E0880025401C80B283
:102F9000E080562804D90021024800F023F8E5809B
:102FA000A58070BDC00200202400002010B504469A
:102FB0000068012201F084FB08492068884202D0A1
:102FC0000749884203D1416C41F4004141642068C3
:102FD000016841F001010160002010BD00000140C6
:102FE0000004014010B504460068002201F068FBAF
:102FF000114841F2111221689310814202D00F480A
:10300000814209D1086A104206D1086A184203D1E8
:10301000486C20F4004048642068016A114206D1DF
:10302000016A194203D1016821F001010160012008
:1030300084F83900002010BD000001400004014068
:103040002DE9F0415649054600680968DFF85481CA
:103050000024884232D108F114063088401C81B225
:103060003180B078401CB07098F801204046521C66
:10307000D2B288F80120322A07D344708289521CC8
:103080008281C289521CA8F80E20322910D3464FE3
:1030900034803878C0F10100C1B23970002000F0EE
:1030A0008DFB3878C0F10100C1B2012000F086FB31
:1030B000B0780A2802D3B47000F0F8FE3B492868C3
:1030C000096888424FD1374918314878401CC0B24E
:1030D00048700A78521CD2B20A700F2A00D30C70C2
:1030E000022809D34888401C48808888401C888072
:1030F0004C702F4801F058FEB8F808104046491CA3
:103100008BB22C49A8F8083091F8BA20FA2A02D2DA
:10311000521C81F8BA2091F8BB20FA2A02D2521C24
:1031200081F8BB203222B3FBF2F602FB163272B9F1
:103130004289521C428191F8B720012A03D111F82B
:10314000B92F521C0A700178491C88F800101A48DF
:103150000179012902D10178491C01700178428866
:10316000914200D10471154928680968884215D137
:103170000C4D10356878401C6870A878401C10F021
:10318000FF00A87002D0AC7000F0E2FA6878052861
:1031900004D36C70BDE8F041FDF792BCBDE8F0814E
:1031A0000C02002024000020C00000204802002063
:1031B00048010020E80400200C00002084020020C8
:1031C0007047000038B5044600681A49884204D1A7
:1031D000194909680A68496800911849884209D163
:1031E000174800680168406800900122154914489A
:1031F00000F0CAF914492068884209D113480068D0
:1032000001684068009001221149104800F0BCF9A3
:103210001049206888420BD10F4800680168406857
:103220000090BDE8384001220C490B4800F0ACB9D1
:1032300038BD0000004400407C0300200014014021
:10324000FC030020EC00002000780040FC0200207D
:1032500027000020007C00403C0300205500002097
:1032600070B5026804461068D168536910F00F0FFA
:1032700051D003F0010501F4907635435DD0C207CB
:1032800005D0CA0503D5E26B42F00102E2634207B2
:1032900005D5DA0703D0E26B42F00202E26382074F
:1032A00005D5DA0703D0E26B42F00402E2630207BD
:1032B00005D5DA0703D0E26B42F00802E263E26B65
:1032C000002A34D0800604D5880602D5204607F0AF
:1032D00033FB20684069E16BC0F3801001F0080106
:1032E0000143204624D007F019FB206841694906B4
:1032F0001AD5416921F040014161606BA0B11B49C1
:103300000165606BFEF715FD002810D0606B016D44
:10331000BDE87040084783060FD58B060DD52046C3
:10332000BDE8704007F008BB2046FFF74BFF70BDBB
:10333000FFF748FF0020E06370BD030606D50B06CB
:1033400004D52046BDE8704007F092BC4006F3D596
:103350004806F1D5D168204621F04001D1602021F6
:1033600084F8391000F0F1F970BD00000DA90008D3
:1033700070B5040004D094F83900002510B106E0BF
:10338000012070BD84F83850204600F023F8242036
:1033900084F839002068C16821F40051C1602046DA
:1033A00007F010FB2068016921F490410161206859
:1033B000416921F02A0141612068C16841F400514E
:1033C000C160E563202084F8390084F83A000020C9
:1033D00070BD0000F0B587B0044614216846FCF7C4
:1033E0004BFF6149DFF87CC126685F4A103902242F
:1033F0000125032308275D4866451ED1166846F05F
:1034000080461660126802F0804205920A6842F017
:1034100010020A60096801F010010591D9018DE8D8
:103420003200CDE903376946FEF7A8FC00220221ED
:103430005220FEF7FBFD522020E0DFF834C1664544
:1034400020D1166846F000461660126802F000426D
:1034500005920A6842F010020A6009688DE8380097
:1034600001F01001CDE9047103936946FEF786FC73
:10347000002202215320FEF7D9FD5320FEF7CAFD9A
:1034800007B0F0BDDFF8ECE03B484FF0070C7645A5
:103490001ED1166846F400361660126802F4003237
:1034A00005920A6842F008020A60096801F0080102
:1034B000059160218DE83200CDE9033C6946FEF7B5
:1034C0005DFC002202212620FEF7B0FD2620D5E774
:1034D000DFF8A8E076451FD1166846F4802616600E
:1034E000126802F4802205920A6842F008020A601B
:1034F000096801F0080105914FF440718DE8320030
:10350000CDE9033C6946FEF739FC00220321272060
:10351000FEF78CFD2720B1E719488642B0D112484A
:10352000001D026842F020020260006800F02000E6
:103530000590086840F0400008600868694600F09F
:10354000400005904FF484408DE83100CDE9033709
:103550000C48FEF713FC002202214720FEF766FD0F
:1035600047208BE7007800404038024000100240BE
:10357000007C004000440040000C02400048004035
:10358000001401400018024090F83A30202B1DD161
:10359000D1B1CAB190F83830012B17D08162828541
:1035A000C2850021C163222280F83A2080F83810B9
:1035B00001684A6942F001024A610068C16841F449
:1035C0009071C16000207047012070470220704751
:1035D00070B504462548844225D101222449FFF7CD
:1035E000D3FF2348C21E037800F11B0190780B54CF
:1035F000401CC0B29070032815D34D780023032DD2
:1036000002D18D78022D01D093700CE007280AD3E7
:10361000C8780D79097845EA0020164D05EB41017F
:10362000A1F86400F0E7144884420CD113480078F4
:1036300000F034FF10B9124800F08CFF01220F494E
:103640000D48FFF7A1FF0F4884420ED10E480078C5
:1036500000F03CFD10B90D4800F092FDBDE870404F
:10366000012209490748FFF78FBF70BDFC02002007
:1036700027000020840600203C0300205500002085
:10368000DC040020FC030020EC000020F1000020FE
:103690002DE9F843044690F839001F4616460D46BA
:1036A000202850D1A5B19EB194F8380001284AD005
:1036B000012084F838004FF00008C4F83C80212035
:1036C00084F83900FEF746FCA6848146E68426E0AD
:1036D0000120BDE8F883E08C401EE084A0684B46E2
:1036E000B0F5805F4FF000024FF080012046009758
:1036F00003D007F0EEFAE8B90DE007F0EAFAC8B92E
:1037000028882168C0F308004860206908B16D1C52
:1037100005E0AD1C03E0216815F8010B4860E08C62
:103720000028D8D14B46002240212046009707F0C0
:10373000D0FA08B10320CCE7202084F8390084F8BF
:1037400038800020C5E70220C3E77047FEE77047D6
:103750007CB50026164D174C0096019628782070EF
:1037600003206070A6703420E07026710120607123
:1037700030466946225C0A54401CC0B20628F9D380
:103780000846FDF713F9A0716846FDF70FF9000A26
:10379000E071FF23082207490748FFF779FF2878DF
:1037A000401CC0B22870042800D32E707CBD0000DD
:1037B000CC00002049000020FC02002040B101287C
:1037C0000ED18303074839B1012909D1012204E050
:1037D0004FF400630448F6E700221946FEF7B4BB35
:1037E0007047000000140240001002407FB5002422
:1037F00014480094019402941149039401604FF419
:103800008031C0E901140125046185610E4904621B
:10381000C0E90A14C460C56145610463FDF7EAFDAF
:1038200008B1FDF74BF90620CDE900056946029481
:103830000448FDF795FC002801D0FDF73FF97FBD56
:10384000002001403C0400200100000F10B520487A
:103850001E49002401600321C0E901144FF4102126
:10386000C0E903414FF40011416104764476847647
:10387000C47604774477FEF79BF808B1FDF71EF98C
:10388000134801215038046044608460C4600461BE
:103890004461C0E9064101620E2141620146503097
:1038A000FDF784FE08B1FDF709F90948FEF70EFAA5
:1038B00008B1FDF703F912210548FDF7FFFD0028C7
:1038C00003D0BDE81040FDF7F9B810BD006400401A
:1038D0004801002010B520481E4900240160032142
:1038E000C0E901144FF41021C0E903414FF4001165
:1038F0004161047644768476C47604774477FEF793
:1039000057F808B1FDF7DAF813480E2150380122B4
:10391000046044608460C460C0E90441C0E90642B8
:10392000C0E9082101465030FDF740FE08B1FDF71F
:10393000C5F80948FEF7CAF908B1FDF7BFF812212A
:103940000548FDF7BBFD002803D0BDE81040FDF79A
:10395000B5B810BD00680040700100202DE9F04F9F
:1039600087B014216846FCF787FC5C480024016896
:1039700041F010010160016801F01001059101683A
:1039800041F040010160016801F0400105910168CA
:1039900041F001010160016801F001010591016838
:1039A00041F008010160016801F00801059101681A
:1039B00041F480710160016801F480710591016832
:1039C00041F080010160016801F08001059101680A
:1039D00041F020010160016801F0200105910168BA
:1039E00041F0020101600068DFF8F49000F002008D
:1039F000059001223C214846FEF7A6FADFF8E4A034
:103A000001224FF488415046FEF79EFA00224021E1
:103A10004846FEF799FA0122DFF8CCB0D7023946C2
:103A20005846FEF791FA4FF4C068002241462F48ED
:103A3000FEF78AFA012204212D48FEF785FA0022BA
:103A400008212B48FEF780FA3C2001250226CDE90B
:103A50000005CDE9024669464846FEF78FF9A802FF
:103A6000CDE90005CDE9024669465046FEF786F9E4
:103A700004208DE8510069461C48FEF77FF940207C
:103A80000090CDE90154694648460394FEF776F963
:103A90000097CDE90154694658460394FEF76EF944
:103AA000A8030090CDE90154694650460394FEF7FF
:103AB00065F9CDF80080CDE9015469460B480394BF
:103AC000FEF75CF90C200090CDE9015469460848E6
:103AD0000394FEF753F907B0BDE8F08F3038024089
:103AE000001C02400014024000100240000402408A
:103AF00000000240104810B50E4901604FF4827179
:103B0000416000218160C1604FF400720161C0E931
:103B100005122822C0E90721416281620A21C1629F
:103B2000FEF79AFD002803D0BDE81040FCF7C6BFA1
:103B300010BD0000003001408404002010B586B0A4
:103B400000241648009401940294039404944FF0C6
:103B500080410594016040F28F61C0E9011440F298
:103B6000E731C0E90314FEF726FF08B1FCF7A6FF12
:103B70004FF48050009069460848FEF79DFF08B159
:103B8000FCF79CFF049404A904480594FEF7EBFE9F
:103B9000002801D0FCF792FF06B010BD0C020020F7
:103BA00010B586B000241748009401940294039441
:103BB000049413490594016040F28F61C0E9011437
:103BC00040F2E731C0E90314FEF7F5FE08B1FCF757
:103BD00075FF4FF48050009069460A48FEF76CFF6D
:103BE00008B1FCF76BFF049404A906480594FEF79E
:103BF000BAFE002801D0FCF761FF06B010BD00003E
:103C0000000400404802002010B586B00024174888
:103C10000094019402940394049413490594016060
:103C200040F28F61C0E9011440F2E731C0E90314AA
:103C3000FEF7C1FE08B1FCF741FF4FF48050009041
:103C400069460A48FEF738FF08B1FCF737FF0494CD
:103C500004A906480594FEF786FE002801D0FCF76B
:103C60002DFF06B010BD00000008004084020020B7
:103C700010B594B000240E940F94109411941294E3
:103C80001C2168461394FCF7F7FA1C2107A8FCF7DF
:103C9000F3FA31482F490160A721C0E901146321DB
:103CA000C0E90314C8214161FEF785FE08B1FCF7A5
:103CB00005FF4FF480500E900EA92748FEF7FCFE3A
:103CC00008B1FCF7FBFE2448FFF734F908B1FCF714
:103CD000F5FE2148FFF774F808B1FCF7EFFE1294E7
:103CE00012A91D481394FEF73EFE08B1FCF7E6FE4C
:103CF0006020CDE90004029403940494059400220A
:103D0000694615480694FFF7ADF808B1FCF7D6FEF2
:103D10003020009040F6B8300190042269460E48E9
:103D2000FFF722F808B1FCF7C9FE0794089409943C
:103D30004FF400500A94CDE90B4007A906480D94B2
:103D4000FEF7E4FD08B1FCF7B9FE0348FEF7E2FF19
:103D500014B010BD00040140C0020020104810B58E
:103D60000E4901604FF4E1314160002181600C2275
:103D7000C160C0E904128161C161FFF7F9FA08B1BD
:103D8000FCF79CFE012207490548FFF7FDFB0028D0
:103D900003D0BDE81040FCF791BE10BD0078004094
:103DA000FC020020270000200C4810B50A490160E1
:103DB0004FF4E1314160002181600C22C160C0E913
:103DC00004128161C161FFF7D3FA002803D0BDE876
:103DD0001040FCF773BE10BD007C00403C03002087
:103DE0000C4810B50A4901604FF4E13141600021EF
:103DF00081600C22C160C0E904128161C161FFF7DA
:103E0000B7FA002803D0BDE81040FCF757BE10BD3C
:103E1000004400407C0300200C4810B50A490160B2
:103E20004FF4E1314160002181600C22C160C0E9A2
:103E300004128161C161FFF79BFA002803D0BDE83D
:103E40001040FCF73BBE10BD00480040BC03002002
:103E50000C4810B50A4901604FF4E131416000217E
:103E600081600C22C160C0E904128161C161FFF769
:103E70007FFA002803D0BDE81040FCF71FBE10BD3C
:103E800000140140FC030020FEE770470907090EFB
:103E9000002806DA00F00F0000F1E02080F8141D81
:103EA000704700F1E02080F800147047F8B507F083
:103EB0002DFC4E4C94F836000C280DD2DFE800F0B3
:103EC000060860626466686A6C6E707248A100E001
:103ED00048A14A48FCF7DBF90121484A084607F0A7
:103EE000BAFC47A14548FCF7D2F9444A0121022017
:103EF00007F0B1FC434E0525009536F8662F0023E8
:103F00000421022007F06EFC3FA13C48FCF7BFF9FA
:103F10003A4A0A21022007F09EFC0095728800238D
:103F20000D21022007F05EFC38A13448FCF7AFF900
:103F3000324A0121032007F08EFC0225009594F9F6
:103F40003820032100230846343407F04BFC30A10D
:103F50002A48FCF79CF9294A0621032007F07BFC3C
:103F6000009594F9052000230921032007F03AFC6D
:103F7000207805281ED2DFE800F017193432360009
:103F800024A1A6E725A1A4E726A1A2E729A1A0E7ED
:103F90002CA19EE72FA19CE732A19AE734A198E7D4
:103FA00036A196E738A194E73AA100E03BA1134877
:103FB000FCF76DF9114A0121042007F04CFC0F4A6F
:103FC0000721042007F047FC01200090344800231B
:103FD000072190F82B20042007F004FCF8BD31A144
:103FE000E5E731A1E3E731A1E1E70000B0050020FA
:103FF0004F55540043454E544552000004070020DD
:104000004C313A008406002050573A00583A0000DC
:10401000593A00004F4E5F58000000004F4E5F5964
:104020000000000058706C75735F43454E54455254
:1040300000000000586D696E75735F43454E54452E
:104040005200000059706C75735F43454E544552E1
:1040500000000000596D696E75735F43454E54450D
:104060005200000051315F43454E5445520000005C
:1040700051325F43454E54455200000051335F4377
:10408000454E54455200000051345F43454E54455F
:10409000520000004E4F5F4449520000582B000070
:1040A000EC050020582D0000592B0000592D000070
:1040B00010B5FFF7CDFEBDE81040012201490248CE
:1040C000FFF762BAEC000020FC030020F0B52B499A
:1040D000002201F109030C78062C4DD2DFE804F030
:1040E000030B1418223156280CD1CA789854012099
:1040F0000870521C06E0562803D1CA789854022052
:10410000F6E70A70CA7037E0CA7898540320EFE7E0
:104110000228F6D8CC78185504200870641CCC709E
:104120004A7029E0CC7818554878641C401CC0B20D
:104130004870CC70DB7883421ED1052008708A70ED
:104140001AE0DC789D788E78254435448D704A706D
:1041500006E05E198F7836796D1C3E448E704D7086
:104160004D78AC42F5D80A708C78844204D1CC7872
:104170001855CA700020F0BD0120F0BDE8000020F5
:1041800082780649072A05D0082A02D1007981F8E9
:104190008C007047007981F88D007047E80400209A
:1041A0000449012213468A70C87004220248FFF7AE
:1041B0006FBA0000ED000020FC0300200449032238
:1041C00001238A70C87004220248FFF761BA000018
:1041D000ED000020FC0300200349002091F821108D
:1041E000012900D101207047B0050020094900B520
:1041F000002081F8210002464CF2503304E01046C2
:10420000521C92B2984203D2FFF7E6FF0028F6D084
:1042100000BD0000B0050020704700002DE9F0410E
:10422000124B134E134F14460D46012813D002288B
:104230001AD10022082198461846FDF785FE002273
:1042400004214046FDF780FE35803C80BDE8F0410A
:104250003C2007F02DBB0122042198461846FDF7AB
:1042600073FE00220821ECE7BDE8F0810000024067
:10427000280000202A00002010B50A4C07E0002288
:1042800011460220FFF7CAFF1E20FDF765FDB4F8B6
:1042900068004628F3D8BDE8104000210248FEF728
:1042A000A1BE000084060020C002002003490020B7
:1042B00091F82010012900D101207047B00500209D
:1042C0000148FEF75FB900008404002038B50B46B2
:1042D000009204460022802100F010F8002804D04B
:1042E000606D40F020006065032038BD10B5806B24
:1042F0000021C187C186FEF743F910BD2DE9F041C9
:104300001D4617460E460446DDF8188035E0681C49
:1043100033D02DB1FDF71EFEA0EB0800A8422CD330
:104320002068416821F0E00141606068B0F5827F5B
:104330000BD1A068B0F5004F02D0B0F5806F04D16A
:104340002068016821F040010160A06AB0F5005FBB
:104350000AD1206801684DF6FF72114001602068A3
:10436000016841F400510160012084F851000020EF
:1043700084F850000320BDE8F0812068806836EAA8
:10438000000004D00020B842C1D10020F3E7012092
:10439000F9E77047094900B5002081F8200002467E
:1043A0004CF2503304E01046521C92B2984203D2B1
:1043B000FFF77CFF0028F6D000BD0000B00500200C
:1043C000FDF7CEBD30B593B030216846FBF754FF02
:1043D00014210CA8FBF750FF19480025016841F093
:1043E00080510160006800F080501190154801680C
:1043F00041F4404101600068022400F44040119003
:1044000001200090000401908001CDE906400620C3
:104410000890A820CDE9090407200B906846FDF715
:1044200021FF0CA90F2081E831004FF4A0500F901C
:10443000E002109005210CA8FDF72AFE13B030BD54
:1044400040380240007000401048016841F470019B
:1044500001600F48016841F0010101600C4A002130
:104460000832116002680B4B1A400260031D0A4AB1
:104470001A60026822F48022026005480C30016054
:1044800002495806803908607047000088ED00E056
:1044900000380240FFFFF6FE10300024F0B52B4933
:1044A0002B4B00220C78062C4DD2DFE804F0030BD6
:1044B0001418223155280CD1CA789854012008705C
:1044C000521C06E0552803D1CA7898540220F6E71A
:1044D0000A70CA7037E0CA7898540320EFE70228C0
:1044E000F6D8CC78185504200870641CCC704A703B
:1044F00029E0CC7818554878641C401CC0B248703C
:10450000CC70DB7883421ED1052008708A701AE0D7
:10451000DC789D788E78254435448D704A7006E0AD
:104520005E198F7836796D1C3E448E704D704D78D3
:10453000AC42F5D80A708C78844204D1CC781855F6
:10454000CA700020F0BD0120F0BD00005100002025
:10455000DC04002070B5044680781A4D062807D286
:10456000DFE800F00714031F232A17490020087012
:1045700070BD227915484FF48041012A04D00122F0
:10458000BDE87040FDF7E0BC0022F9E72079FCF7B8
:104590000FF8E5E928016079FCF70AF8C5E902019E
:1045A00070BD012085F8B10070BD2079FFF706FECF
:1045B000092085F8B00070BD2079BDE87040FFF794
:1045C000EFBD0000E8040020240000200014024099
:1045D0000148FEF7EBBA00000C0200200148FEF78C
:1045E000E5BA0000480200200148FEF7DFBA0000EB
:1045F000840200200148FEF7D9BA0000C002002062
:10460000F0B50268234B244D244E254F254C4FF026
:10461000804C984209D0604507D0A84205D0B042EE
:1046200003D0B84201D0A04204D122F0700E4A68F3
:1046300042EA0E0298421BD0604519D0A84217D01A
:10464000B04215D0B84213D0A04211D0164DA842A6
:104650000ED0164DA8420BD0154DA84208D0154DCE
:10466000A84205D0144DA84202D0144DA84203D14F
:1046700022F44075CA682A4302608A68C2620A68E6
:104680008262984201D0A04201D1096901630121EF
:104690004161F0BD000001400004004000080040FE
:1046A000000C004000040140004001400044014073
:1046B0000048014000180040001C0040002000405D
:1046C00010B50123046A8B409C430462036A8A404C
:1046D0001343036210BD10B5846842EA032224F438
:1046E0007F440A432243826010BD826822F0700238
:1046F0000A4342F0070181607047000030B5026A4A
:1047000022F001020262026A436884690D6824F0A3
:104710007304254322F002048A6822430B4CA04212
:1047200002D00B4CA0420BD122F00804CA6823F43B
:10473000407322434C6922F004021C438B692343DB
:104740004360856149684163026230BD00000140F9
:104750000004014030B5026A22F010020262026ACF
:10476000436884690D6824F4E64444EA05248D68AE
:1047700022F0200242EA05120D4DA84202D00D4D52
:10478000A8420ED1CD6822F0800242EA05124D699E
:1047900023F4406343EA85038D6922F0400243EA33
:1047A00085034360846149688163026230BD000013
:1047B000000001400004014030B5026A22F480721A
:1047C0000262036A4268C46923F4007324F073052B
:1047D0000C682C438D6843EA05230D4DA84202D096
:1047E0000C4DA8420ED1CD6823F4006343EA0523A3
:1047F0004D6922F4405242EA05128D6923F4806328
:1048000042EA05124260C4614968C163036230BD77
:10481000000001400004014030B5026A22F48052D9
:104820000262046A4268C3690D6823F4E64343EAFE
:1048300005238D6824F4005444EA0534084DA84249
:1048400002D0084DA84204D14D6922F4804242EAC8
:1048500085124260C36149680164046230BD000092
:10486000000001400004014010B5036A046A24F00E
:1048700001040462846924F0F00444EA021423F081
:104880000A020A438461026210BD10B5036A23F074
:10489000100303628369046A23F4704343EA02321B
:1048A00024F0A00343EA01118261016210BD0000FF
:1048B000F0B4064CDDE9045620706170A280E380FC
:1048C00025723046F0BCFDF747BA0000B005002065
:1048D00070B51E4C002584F8290084F82A10228126
:1048E000638100F0EFF800BF05F00AFF0028FBD05D
:1048F00016492379002201203C39052B0FD2DFE82D
:1049000003F01F031307180008704870208903E0A4
:1049100008704870208940428880CA800A7294F8E2
:104920002B0001280ED00EE0087048708A80608944
:1049300004E0087048708A8060894042C880EDE7D2
:104940008A80EAE70125284670BD0000EC050020BA
:1049500010B55A4C207801281DD1208F608700F0B7
:10496000B3F994F835105648052914D2DFE801F060
:1049700013034825780094F837000B280BD2DFE8A2
:1049800000F00A060B0A0A0606060A06060094F854
:10499000360002280ED010BD94F83600012809D048
:1049A000042807D0062805D0082803D00B2801D0FA
:1049B0000728F0D114F8380F39E094F837000C28A4
:1049C000E9D2DFE800F006070C060706070707062E
:1049D0000607E0E794F8360002280ED010BD94F8E0
:1049E0003600012809D0052807D0072805D00A2855
:1049F00003D0062801D00928F0D114F8380F4BE075
:104A000094F8381061B194F837000C28E6D2DFE84A
:104A100000F0062206132222062206062222DDE7E5
:104A20000179007809B120B110BD10B910BD401C4A
:104A300033E014F8390FFAE794F836000128F8D07B
:104A40000628F6D00428F4D00928F2D00828F0D09F
:104A50000528EED010BD94F836000328E9D010BD2B
:104A600094F8381059B194F837000A28F7D2DFE8E3
:104A700000F0050D05160D0D0D050D0DEFE7017983
:104A8000007809B130B110BD20B910BD94F83600DE
:104A90000328FAD114F8390F401E207010BD94F885
:104AA00036000128F6D00728F4D00528F2D00A28CD
:104AB000F0D00428EED00B28ECD010BDB0050020BB
:104AC0009E0000202DE9F0477E480025A0F13C061D
:104AD0000577C5768576457605760179417196F933
:104AE000382096F939402B46D7074FF0010102D004
:104AF0000177817603E0E70701D0C176417696F829
:104B000036600C2E10D2DFE806F00F0F06090A0CF3
:104B1000070E1416181A0177817605E0C1764176E2
:104B200002E0C17600E00177022A0AD0042A0CD004
:104B30000DE08176F3E78176F3E70177F1E701771E
:104B4000EDE7062C03D1817619E0062C04D0022C67
:104B500004D0042C02D00CE0817606E0042A04D0B4
:104B6000022C04D0042C02D003E0C17619E0022A02
:104B700005D034B1022C0DD0042C0FD011E04176B9
:104B80000FE0022A02D0042A02D00AE00177F6E7F9
:104B90000177EAE7042A04D1817602E0042A00D1F1
:104BA000017746196D1CEDB27377052DF9D390F995
:104BB00029A0022504264FF0030C92450BDD8177D6
:104BC00080F82B3090F92A70A74201DDC57717E0F5
:104BD00016DAC67714E009DA80F81EC080F82B30A8
:104BE00090F92A70A742F1DCF3DB09E090F92A7012
:104BF000A74201DD857701E023DA867780F82B3044
:104C0000304F90F81E8007F11807C14618F807804A
:104C1000B8F1000F18D090F81F80C14618F807802F
:104C2000B8F1000F18D090F82080C14618F807801E
:104C3000B8F1000F18D090F8218018F80770DFB194
:104C400022E080F82B101FE0B9F1050F26D2DFE833
:104C500009F01B1D1F212400B9F1050F1ED2DFE84A
:104C600009F0131517191C00B9F1050F16D2DFE86A
:104C700009F00B0D0F111400B8F1050F0ED2DFE88B
:104C800008F0030507090C00037107E0017105E056
:104C9000057103E080F804C000E0067190F92A5025
:104CA000A5420CD192450AD1037180F82B1080F8EF
:104CB000253080F8243080F8233080F82230BDE899
:104CC000F0870000EC05002070B51C4991F8340015
:104CD00081F835000846B1F92420B0F9264002B920
:104CE0004CB31648B0F924004342002A01DB1546B4
:104CF00000E01D461148261EB0F92600C0F1000054
:104D000000DA0646B54208DD002A04DD5FF0010046
:104D100081F8340070BD0320FAE7002A00DA1A4651
:104D2000231E00DB18468242F4DA002C01DD02204B
:104D3000EEE70420ECE70020EAE70000B0050020E1
:104D4000F0B50E4D0746002095F800C00C4B0D4EF7
:104D50000446BCF1000F05D11C705C709F80D980A7
:104D60001C72B48001212970B188914204DB9C80BF
:104D7000DC801C7201202C70F0BD00009C00002023
:104D8000B00500203C0000200649002005220870E4
:104D9000487081F8380081F839003C310A70C870D9
:104DA00070470000B0050020104A30B49188938A03
:104DB0000B440F491C0A0C704B70D388D48A2344CF
:104DC0001C0A8C70CB7092F9083092F918201A44A2
:104DD000130A0B714A7100228A71CA7101F108032A
:104DE0000A4630BC0349FCF77DBB0000B00500203B
:104DF00098010020A80000200B480078072811D255
:104E0000DFE800F0100406080A0C0E0002F04ABDAC
:104E100000F00CB804F0E0B901F0C0BD03F0F4BB41
:104E200000F03EBF70470000EC0500202DE9FC5F5C
:104E3000FC4D002441F2883CEA784FF47A784FF038
:104E4000030BA5F13C074FF4FA7640F2DC5A4FF41D
:104E5000FA69412A7ED07EDC4FF0010B4FF046000C
:104E60001C2A79D02EDCC9F10003152A75D021DC6B
:104E70000E2A73D00CDC002A71D00C2A70D00D2AB7
:104E80006FD106F072FD082006F0A2F9422048E139
:104E9000102A67D0112AF3D106F020FD4046FCF716
:104EA0005BFF032006F094F94A20E87032220021CB
:104EB00002207FE2163A052A53D2DFE802F0FCFB1B
:104EC000FAF9F800262A7DD00ADCA2F11D02092A8F
:104ED000F2D2DFE802F0F6F5F4464646F3F2F100CE
:104EE000D148D24F362A6ED01BDC272A6CD0322A0A
:104EF000C6D1002302460094194618460194FFF7D4
:104F0000D7FCB7F866005A282BD80023CDE9004615
:104F10001A4619461846FFF7CBFC85F801B0102059
:104F2000FFE0372A7ED0382AAAD100230246009417
:104F3000194618460194FFF7BBFCB7F866006428D1
:104F4000E2D80023CDE900491A4619461846FFF772
:104F5000AFFC08E0F7E30AE0F6E382E3F5E3E3E021
:104F6000F4E3DFE08BE185F801B00E20D9E0B04931
:104F7000762A0878497873D068DC4E2A71D00BDC29
:104F8000A2F142020C2A97D2DFE802F0E9E8CCCC89
:104F9000CCCCE7CCE6CCE5E44FF4617040F6C41825
:104FA0006E2A5FD026DC4F2A5DD06D2AA0D18146C3
:104FB000024631460720FBF759FD00231A461946E1
:104FC000184602E025E2A5E341E2CDE90048FFF7FB
:104FD0006FFC4A46DC210720FBF748FD56461E229F
:104FE00000213046FFF7ACFE0028F8D0BC80FC80E2
:104FF0007D200CE36F2A65D0712A95D18146024647
:1050000031460720FBF732FD0023CDE900481A4660
:1050100019461846FFF74CFC4A4678210720FBF753
:1050200025FD00E0F2E31E2200215046FFF788FE36
:105030000028F6D0BC80FC800023CDE900461A464B
:1050400019461846FFF734FC80206AE040F6AC5B56
:105050007E2A7CD00EDCA2F17702072A62D203E01E
:1050600087E1F2E3B5E2F1E3DFE802F0EAE9E85CC8
:10507000E7E6DB00942A6BD03FDC7F2A69D0802AE8
:1050800050D1002300941A46022118460194FFF7DC
:105090000FFC232259460020FFF752FE0028F8D0CB
:1050A000002300941A460221184601940BE0FDE308
:1050B000ADE38BE310E3F3E2C3E088E068E0F6E3FE
:1050C000F6E3F6E3F6E3FFF7F3FBFFF763F90023FC
:1050D000CDE900461A4619461846FFF7E9FB0023BA
:1050E00000941A46194618460194FFF7E1FB042084
:1050F00007F8380F7870942013E0982A12D14E46A2
:105100005F46282239463046FFF71AFE0028F8D0BD
:10511000002300941A46194618460194FFF7C8FB6D
:105120009920E870BDE8FC9F0022009411461046CB
:105130000194FFF7BDFB3E4801780906F2D540789F
:10514000C007EFD0002364201A46022108E061E284
:10515000FEE3FEE3EBE1EEE092E19AE0FAE38FE3B7
:10516000CDE900401846FFF7A3FBFFF713F9002332
:10517000CDE900461A4619461846FFF799FB052067
:1051800007F8380F062078702320E87000220FE11E
:105190000421624663460846FFF79AFB95F82B0008
:1051A0000128BFD16420CDE9004000231A46022126
:1051B0001846FFF77DFBFFF719F80023CDE90046FD
:1051C0001A4619461846FFF773FB2420A9E7002367
:1051D00000941A46022118460194FFF769FBDFF894
:1051E0005480642241460020FFF7AAFD0028F8D031
:1051F000002300941A46022118460194FFF758FB39
:10520000FFF7C8F80023CDE900461A4619461846AC
:10521000FFF74EFB042007F8380F02207870252096
:105220007FE7CCE0EC05002018FCFFFF840600209F
:105230004806002054F2FFFFFEE3FEE391E3A8E1FD
:1052400093E16246634600210420FFF741FB95F895
:105250002B000128A5D10023CDE900481A460221E0
:105260001846FFF725FBFFF795F80023CDE9004628
:105270001A4619461846FFF71BFB322051E706F085
:105280002DFB3046FCF768FD022005F0A1FF482009
:105290000BE60F2200215046FFF752FD0028F8D000
:1052A00097F836004FF04C08022820D1C820CDE9ED
:1052B000004000231A4602211846FFF7F9FAFFF7CB
:1052C00069F80023CDE900461A4619461846FFF74B
:1052D000EFFA87F838B087F8394085F80380002363
:1052E000CDE900461A4619461846FFF7E1FA97F845
:1052F00036000728AED1C820CDE9004000231A4669
:1053000002211846FFF7D4FAFFF744F80023CDE94D
:1053100000461A4619461846FFF7CAFA042007F84D
:10532000380F00237C7085F80380CDE900461A46CB
:1053300019461846F8E06246634602210420FFF74A
:10534000C7FA95F82B00012884D10023CDE9004647
:105350001A4619461846FFF7ABFAFFF71BF8002369
:10536000CDE900461A4619461846FFF7A1FA7620FD
:10537000D7E6BC80A7F80690C2067FF5D3AE8906B3
:10538000FBD58006F9D5FC800023CDE9004A1A46FA
:1053900019461846FFF78CFAFE4E1E2200213046B1
:1053A000FFF7CEFC0028F8D0BC80FC806D20B8E66A
:1053B0000021012002B0BDE8F05FFEF72FBF0023FF
:1053C00000941A46022118460194FFF771FADFF89B
:1053D000C8833C2241460020FFF7B2FC0028F8D0E9
:1053E000002300941A46022118460194FFF760FA40
:1053F000FEF7D0FF0023CDE900461A4619461846AD
:10540000FFF756FA042007F8380F0220787026209C
:1054100087E66246634600210420FFF759FA95F8B3
:105420002B00012890D10023CDE900481A46022123
:105430001846FFF73DFAFEF7ADFF0023CDE9004621
:105440001A4619461846FFF733FA272069E6002363
:1054500002460094194618460194FFF729FAB7F856
:1054600066005A283FF65EAE0023CDE900481A4692
:1054700019461846FFF71CFA85F801B0112050E6CE
:105480000F2200215046FFF75BFC0028F8D0CDE941
:105490000046002301211A460846FFF709FA97F84B
:1054A00036004FF04D09022820D1C820CDE9004038
:1054B00000231A4602211846FFF7FAF9FEF76AFFA1
:1054C0000023CDE900461A4619461846FFF7F0F9C1
:1054D00087F838B087F8394085F803900023CDE984
:1054E00000461A4619461846FFF7E2F997F83600C3
:1054F000072897D1C820CDE9004000231A46022191
:105500001846FFF7D5F9FEF745FF0023CDE9004621
:105510001A4619461846FFF7CBF9042007F8380F4A
:105520007C7085F8039024E3FFF7C2F9FAE5624640
:10553000634602210420FFF7CBF995F82B000128E0
:10554000F4D10023CDE900461A4619461846FFF764
:10555000AFF9FEF71FFF0023CDE900461A461946B2
:105560001846FFF7A5F97720DBE5BC80A7F8069081
:10557000C206DBD58906D9D58006D7D5FC800023A5
:10558000CDE9004A1A4619461846FFF791F97820E6
:10559000C7E5BC80A7F80690C206C7D58A06C5D461
:1055A0004906C3D48006C1D5FC800023CDE9004A5A
:1055B0001A4619461846FFF77BF9764E1E2200213F
:1055C0003046FFF7BDFB0028F8D0BC80FC806E2081
:1055D000A7E58146024631460720FBF747FA00233C
:1055E000CDE900481A4619461846FFF761F94A46C0
:1055F00078210720FBF73AFA56461E220021304652
:10560000FFF79EFB0028F8D0BC80FC807E20E8706D
:105610003222CDE6002300941A4602211846019456
:10562000FFF746F9232259460020FFF789FB00289F
:10563000F8D0002300941A46022118460194FFF77F
:1056400037F9FEF7A7FE0023CDE900461A461946B2
:105650001846FFF72DF9042007F8380F7870152049
:105660005FE56246634604210620FFF731F995F8AD
:105670002B0001287FF45AAF0023CDE900481A46D9
:1056800002211846FFF714F9FEF784FE0023CDE946
:1056900000461A4619461846FFF70AF9162040E553
:1056A0000023CDE9000A1A4619461846FFF700F90B
:1056B0000023CDE900481A4602211846FFF7F8F802
:1056C000FEF768FE0023CDE900461A461946184643
:1056D000FFF7EEF8172024E54F4623223946002035
:1056E000FFF72EFB0028F8D00023CDE900481A462A
:1056F00002211846FFF7DCF885F801B0FEF74AFEF4
:105700000023CDE900461A4619461846FFF7D0F89F
:10571000362006E5002302460094194618460194F7
:10572000FFF7C6F8B7F8660064283FF6FFAE00231F
:10573000CDE900491A4619461846FFF7B9F885F829
:1057400001B00C20EDE409E084E1DCE1FFE706F0C4
:105750000CF9052005F03CFD4120E2E40023009413
:105760004A46194618460194FFF7A2F80B480178FB
:1057700009067FF5DBAE4078C0073FF4D7AE0023C3
:1057800000941A46022118460194FFF791F8FEF79B
:1057900001FE05E024FAFFFF54F2FFFF320600206D
:1057A0000023CDE900461A4619461846FFF780F84F
:1057B000062087F83800182087F839B0E8700023F1
:1057C000CDE900491A4619461846ADE60022009474
:1057D000114610460194FFF76BF8F7480078000671
:1057E000C7D564200023CDE900401A461946184663
:1057F000FFF75EF8FEF7CEFD0023CDE900461A461E
:1058000019461846FFF754F819208AE41FE04F465E
:10581000232239460020FFF793FA0028F8D000230E
:10582000CDE900481A4602211846FFF741F885F8ED
:1058300001B0FEF7AFFD0023CDE900461A46194638
:105840001846FFF735F837206BE465E0BAE100232E
:1058500002460094194618460194FFF729F8B7F854
:10586000660064283FF662AE0023CDE900491A467F
:1058700019461846FFF71CF885F801B00D2050E4D2
:10588000002300944A46194618460194FFF710F881
:10589000CA4801780906A3D54078C0073FF446AE50
:1058A000002300941A460221184604E018E067E13C
:1058B0000BE1EEE07CE00194FEF7FAFFFEF76AFDF3
:1058C0000023CDE900461A4619461846FEF7F0FFB8
:1058D000062087F8380087F839B01A20E87048E1C8
:1058E0000023CDE9000A1A4619461846FEF7E0FFE4
:1058F0000023CDE900481A4602211846FEF7D8FFDA
:10590000FEF748FD0023CDE900461A461946184621
:10591000FEF7CEFF4E2004E46246634602210420D7
:10592000FEF7D6FF95F82B0001287FF4FFADBC8071
:10593000FC800023CDE900461A4619461846FEF7BA
:10594000B7FFFEF753FC00231A461946184602E03B
:1059500086E154E0DEE0CDE90046FEF7A9FF7920BC
:1059600034E4BC80A7F80690420794D5090792D585
:10597000000790D5FC800023CDE900461A46194661
:105980001846FEF795FFDFF838821E2200214046B8
:10599000FFF7D6F90028F8D0BC80FC800023CDE9C1
:1059A00000461A4619461846FEF782FF6F200DE49E
:1059B000814602464FF42A710720FBF757F800236F
:1059C000CDE900481A4619461846FEF771FF4A46C7
:1059D00078210720FBF74AF81E2200215046FFF7E6
:1059E000AFF90028F8D0BC80FC800023CDE9004648
:1059F0001A4619461846FEF75BFF7F2010E4002385
:105A000000941A46022118460194FEF751FF2822FD
:105A100059460020FFF794F90028F8D0C820CDE9B6
:105A2000004000231A4602211846FEF741FFFEF708
:105A3000B1FC00231A4601E0F9E0E4E0CDE90046BC
:105A400019461846FEF734FF042007F8380F78701F
:105A50001C2013E46246634604210620FEF738FF4B
:105A600095F82B0001287FF461AD0023CDE90048B3
:105A70001A4602211846FEF71BFFFEF78BFC002397
:105A8000CDE900461A4619461846FEF711FF1D20BB
:105A90006EE40023CDE9000A1A4619461846FEF7BF
:105AA00007FF0023CDE900481A4602211846FEF7F9
:105AB000FFFEFEF76FFC0023CDE900461A461946AB
:105AC0001846FEF7F5FE1E2052E44F4623223946C3
:105AD0000020FFF735F90028F8D00023CDE9004871
